{
  "contractName": "ColdChain",
  "abi": [
    {
      "anonymous": false,
      "inputs": [
        {
          "indexed": false,
          "internalType": "uint256",
          "name": "timestamp",
          "type": "uint256"
        },
        {
          "indexed": false,
          "internalType": "int256",
          "name": "temperature",
          "type": "int256"
        },
        {
          "indexed": false,
          "internalType": "int256",
          "name": "humidity",
          "type": "int256"
        },
        {
          "indexed": false,
          "internalType": "bool",
          "name": "compliant",
          "type": "bool"
        }
      ],
      "name": "NewReading",
      "type": "event"
    },
    {
      "inputs": [],
      "name": "MAX_TEMPERATURE",
      "outputs": [
        {
          "internalType": "int256",
          "name": "",
          "type": "int256"
        }
      ],
      "stateMutability": "view",
      "type": "function",
      "constant": true
    },
    {
      "inputs": [],
      "name": "MIN_TEMPERATURE",
      "outputs": [
        {
          "internalType": "int256",
          "name": "",
          "type": "int256"
        }
      ],
      "stateMutability": "view",
      "type": "function",
      "constant": true
    },
    {
      "inputs": [
        {
          "internalType": "uint256",
          "name": "",
          "type": "uint256"
        }
      ],
      "name": "readings",
      "outputs": [
        {
          "internalType": "uint256",
          "name": "timestamp",
          "type": "uint256"
        },
        {
          "internalType": "int256",
          "name": "temperature",
          "type": "int256"
        },
        {
          "internalType": "int256",
          "name": "humidity",
          "type": "int256"
        }
      ],
      "stateMutability": "view",
      "type": "function",
      "constant": true
    },
    {
      "inputs": [
        {
          "internalType": "int256",
          "name": "_temperature",
          "type": "int256"
        },
        {
          "internalType": "int256",
          "name": "_humidity",
          "type": "int256"
        }
      ],
      "name": "recordReading",
      "outputs": [],
      "stateMutability": "nonpayable",
      "type": "function"
    }
  ],
  "bytecode": "0x608060405234801561001057600080fd5b506103b4806100206000396000f3fe608060405234801561001057600080fd5b506004361061004c5760003560e01c8063879cfa5b14610051578063a7c0c7b51461006f578063d5da886d1461008b578063d6c74b33146100bd575b600080fd5b6100596100db565b6040516100669190610299565b60405180910390f35b61008960048036038101906100849190610207565b6100e0565b005b6100a560048036038101906100a09190610243565b61019e565b6040516100b4939291906102b4565b60405180910390f35b6100c56101d8565b6040516100d29190610299565b60405180910390f35b600281565b6000600283121580156100f4575060088313155b90506000604051806060016040528042815260200185815260200184815250908060018154018082558091505060019003906000526020600020906003020160009091909190915060008201518160000155602082015181600101556040820151816002015550507f08ada6aa6fc4d3ebd019ec23a75fba71f2ea30ad11d8c2362e3c34243d938d3d4284848460405161019194939291906102eb565b60405180910390a1505050565b600081815481106101ae57600080fd5b90600052602060002090600302016000915090508060000154908060010154908060020154905083565b600881565b6000813590506101ec81610350565b92915050565b60008135905061020181610367565b92915050565b6000806040838503121561021a57600080fd5b6000610228858286016101dd565b9250506020610239858286016101dd565b9150509250929050565b60006020828403121561025557600080fd5b6000610263848285016101f2565b91505092915050565b61027581610330565b82525050565b6102848161033c565b82525050565b61029381610346565b82525050565b60006020820190506102ae600083018461027b565b92915050565b60006060820190506102c9600083018661028a565b6102d6602083018561027b565b6102e3604083018461027b565b949350505050565b6000608082019050610300600083018761028a565b61030d602083018661027b565b61031a604083018561027b565b610327606083018461026c565b95945050505050565b60008115159050919050565b6000819050919050565b6000819050919050565b6103598161033c565b811461036457600080fd5b50565b61037081610346565b811461037b57600080fd5b5056fea2646970667358221220bd3942d7a6fbcbf63322fc4eeb45ce24dd6f2e0d7ca2204c4d6867e4c497f8ea64736f6c63430008000033",
  "immutableReferences": {},
  "source": "// SPDX-License-Identifier: MIT\npragma solidity ^0.8.0;\n\ncontract ColdChain {\n    struct Reading {\n        uint256 timestamp;\n        int256 temperature;\n        int256 humidity;\n    }\n\n    Reading[] public readings;\n\n    // Define thresholds for temperature (customize as needed)\n    int256 public constant MIN_TEMPERATURE = 2;\n    int256 public constant MAX_TEMPERATURE = 8;\n\n    // Event emitted when a new reading is recorded\n    event NewReading(\n        uint256 timestamp,\n        int256 temperature,\n        int256 humidity,\n        bool compliant\n    );\n\n    // Function to record a new reading\n    function recordReading(int256 _temperature, int256 _humidity) public {\n        bool compliant = (_temperature >= MIN_TEMPERATURE &&\n            _temperature <= MAX_TEMPERATURE);\n        readings.push(Reading(block.timestamp, _temperature, _humidity));\n        emit NewReading(block.timestamp, _temperature, _humidity, compliant);\n    }\n}\n",
  "sourcePath": "/home/kyouma/project_lab/ColdChainPoC/contracts/ColdChainSup.sol",
  "compiler": {
    "name": "solc",
    "version": "0.8.0+commit.c7dfd78e.Emscripten.clang"
  },
  "schemaVersion": "3.4.16",
  "updatedAt": "2025-02-08T15:30:40.634Z",
  "networkType": "ethereum",
  "devdoc": {
    "kind": "dev",
    "methods": {},
    "version": 1
  },
  "userdoc": {
    "kind": "user",
    "methods": {},
    "version": 1
  }
}