{
  "contractName": "ColdChainTracker",
  "abi": [
    {
      "inputs": [],
      "stateMutability": "nonpayable",
      "type": "constructor"
    },
    {
      "anonymous": false,
      "inputs": [
        {
          "indexed": false,
          "internalType": "uint256",
          "name": "shipmentId",
          "type": "uint256"
        },
        {
          "indexed": false,
          "internalType": "uint256",
          "name": "timestamp",
          "type": "uint256"
        },
        {
          "indexed": false,
          "internalType": "int256",
          "name": "temperature",
          "type": "int256"
        },
        {
          "indexed": false,
          "internalType": "string",
          "name": "message",
          "type": "string"
        }
      ],
      "name": "Alert",
      "type": "event"
    },
    {
      "anonymous": false,
      "inputs": [
        {
          "indexed": false,
          "internalType": "uint256",
          "name": "shipmentId",
          "type": "uint256"
        },
        {
          "indexed": false,
          "internalType": "uint256",
          "name": "timestamp",
          "type": "uint256"
        },
        {
          "indexed": false,
          "internalType": "int256",
          "name": "temperature",
          "type": "int256"
        },
        {
          "indexed": false,
          "internalType": "bool",
          "name": "compliant",
          "type": "bool"
        }
      ],
      "name": "NewReading",
      "type": "event"
    },
    {
      "anonymous": false,
      "inputs": [
        {
          "indexed": false,
          "internalType": "uint256",
          "name": "shipmentId",
          "type": "uint256"
        },
        {
          "indexed": false,
          "internalType": "int256",
          "name": "minThreshold",
          "type": "int256"
        },
        {
          "indexed": false,
          "internalType": "int256",
          "name": "maxThreshold",
          "type": "int256"
        }
      ],
      "name": "ShipmentCreated",
      "type": "event"
    },
    {
      "inputs": [],
      "name": "admin",
      "outputs": [
        {
          "internalType": "address",
          "name": "",
          "type": "address"
        }
      ],
      "stateMutability": "view",
      "type": "function",
      "constant": true
    },
    {
      "inputs": [
        {
          "internalType": "uint256",
          "name": "",
          "type": "uint256"
        },
        {
          "internalType": "uint256",
          "name": "",
          "type": "uint256"
        }
      ],
      "name": "shipmentReadings",
      "outputs": [
        {
          "internalType": "uint256",
          "name": "timestamp",
          "type": "uint256"
        },
        {
          "internalType": "int256",
          "name": "temperature",
          "type": "int256"
        }
      ],
      "stateMutability": "view",
      "type": "function",
      "constant": true
    },
    {
      "inputs": [
        {
          "internalType": "uint256",
          "name": "",
          "type": "uint256"
        }
      ],
      "name": "shipments",
      "outputs": [
        {
          "internalType": "int256",
          "name": "minThreshold",
          "type": "int256"
        },
        {
          "internalType": "int256",
          "name": "maxThreshold",
          "type": "int256"
        },
        {
          "internalType": "bool",
          "name": "exists",
          "type": "bool"
        }
      ],
      "stateMutability": "view",
      "type": "function",
      "constant": true
    },
    {
      "inputs": [
        {
          "internalType": "uint256",
          "name": "shipmentId",
          "type": "uint256"
        },
        {
          "internalType": "int256",
          "name": "minThreshold",
          "type": "int256"
        },
        {
          "internalType": "int256",
          "name": "maxThreshold",
          "type": "int256"
        }
      ],
      "name": "createShipment",
      "outputs": [],
      "stateMutability": "nonpayable",
      "type": "function"
    },
    {
      "inputs": [
        {
          "internalType": "uint256",
          "name": "shipmentId",
          "type": "uint256"
        },
        {
          "internalType": "int256",
          "name": "temperature",
          "type": "int256"
        }
      ],
      "name": "recordReading",
      "outputs": [],
      "stateMutability": "nonpayable",
      "type": "function"
    },
    {
      "inputs": [
        {
          "internalType": "uint256",
          "name": "shipmentId",
          "type": "uint256"
        }
      ],
      "name": "getLatestReading",
      "outputs": [
        {
          "components": [
            {
              "internalType": "uint256",
              "name": "timestamp",
              "type": "uint256"
            },
            {
              "internalType": "int256",
              "name": "temperature",
              "type": "int256"
            }
          ],
          "internalType": "struct ColdChainTracker.Reading",
          "name": "",
          "type": "tuple"
        }
      ],
      "stateMutability": "view",
      "type": "function",
      "constant": true
    },
    {
      "inputs": [
        {
          "internalType": "address",
          "name": "newAdmin",
          "type": "address"
        }
      ],
      "name": "transferAdmin",
      "outputs": [],
      "stateMutability": "nonpayable",
      "type": "function"
    }
  ],
  "bytecode": "0x608060405234801561001057600080fd5b50336000806101000a81548173ffffffffffffffffffffffffffffffffffffffff021916908373ffffffffffffffffffffffffffffffffffffffff160217905550611009806100606000396000f3fe608060405234801561001057600080fd5b506004361061007d5760003560e01c806375829def1161005b57806375829def146101155780639f1a14b214610131578063f851a4401461014d578063fe6c200e1461016b5761007d565b806304b46035146100825780632ac08a93146100b25780634604c460146100e4575b600080fd5b61009c60048036038101906100979190610903565b610187565b6040516100a99190610d6d565b60405180910390f35b6100cc60048036038101906100c79190610903565b610289565b6040516100db93929190610c76565b60405180910390f35b6100fe60048036038101906100f991906109b7565b6102c0565b60405161010c929190610d88565b60405180910390f35b61012f600480360381019061012a91906108da565b610301565b005b61014b6004803603810190610146919061092c565b610442565b005b610155610681565b6040516101629190610c5b565b60405180910390f35b61018560048036038101906101809190610968565b6106a5565b005b61018f610881565b60006002600084815260200190815260200160002080549050116101e8576040517f08c379a00000000000000000000000000000000000000000000000000000000081526004016101df90610ccd565b60405180910390fd5b600260008381526020019081526020016000206001600260008581526020019081526020016000208054905061021e9190610e95565b81548110610255577f4e487b7100000000000000000000000000000000000000000000000000000000600052603260045260246000fd5b9060005260206000209060020201604051806040016040529081600082015481526020016001820154815250509050919050565b60016020528060005260406000206000915090508060000154908060010154908060020160009054906101000a900460ff16905083565b600260205281600052604060002081815481106102dc57600080fd5b9060005260206000209060020201600091509150508060000154908060010154905082565b60008054906101000a900473ffffffffffffffffffffffffffffffffffffffff1673ffffffffffffffffffffffffffffffffffffffff163373ffffffffffffffffffffffffffffffffffffffff161461038f576040517f08c379a000000000000000000000000000000000000000000000000000000000815260040161038690610d4d565b60405180910390fd5b600073ffffffffffffffffffffffffffffffffffffffff168173ffffffffffffffffffffffffffffffffffffffff1614156103ff576040517f08c379a00000000000000000000000000000000000000000000000000000000081526004016103f690610cad565b60405180910390fd5b806000806101000a81548173ffffffffffffffffffffffffffffffffffffffff021916908373ffffffffffffffffffffffffffffffffffffffff16021790555050565b6001600083815260200190815260200160002060020160009054906101000a900460ff166104a5576040517f08c379a000000000000000000000000000000000000000000000000000000000815260040161049c90610d2d565b60405180910390fd5b60006001600084815260200190815260200160002060405180606001604052908160008201548152602001600182015481526020016002820160009054906101000a900460ff1615151515815250509050600081600001518312158015610510575081602001518313155b9050600260008581526020019081526020016000206040518060400160405280428152602001858152509080600181540180825580915050600190039060005260206000209060020201600090919091909150600082015181600001556020820151816001015550507f6092b39d530d43d2e4a9f4a1e21f139bac82af648b8a15aef6d56761857d51c0844285846040516105ae9493929190610de8565b60405180910390a18061067b57600082600001518412610603576040518060400160405280601981526020017f54656d70657261747572652061626f7665206d6178696d756d0000000000000081525061063a565b6040518060400160405280601981526020017f54656d70657261747572652062656c6f77206d696e696d756d000000000000008152505b90507f059d3ce7083478f6ee7dcf1f7577963b6453993fc1b8477296b3e4acf216f7c7854286846040516106719493929190610e2d565b60405180910390a1505b50505050565b60008054906101000a900473ffffffffffffffffffffffffffffffffffffffff1681565b60008054906101000a900473ffffffffffffffffffffffffffffffffffffffff1673ffffffffffffffffffffffffffffffffffffffff163373ffffffffffffffffffffffffffffffffffffffff1614610733576040517f08c379a000000000000000000000000000000000000000000000000000000000815260040161072a90610d4d565b60405180910390fd5b6001600084815260200190815260200160002060020160009054906101000a900460ff1615610797576040517f08c379a000000000000000000000000000000000000000000000000000000000815260040161078e90610ced565b60405180910390fd5b8082126107d9576040517f08c379a00000000000000000000000000000000000000000000000000000000081526004016107d090610d0d565b60405180910390fd5b60405180606001604052808381526020018281526020016001151581525060016000858152602001908152602001600020600082015181600001556020820151816001015560408201518160020160006101000a81548160ff0219169083151502179055509050507f8d85b7d1eba521b90f1febab655c09a42aa27e506d43a24850d64e29639f06bf83838360405161087493929190610db1565b60405180910390a1505050565b604051806040016040528060008152602001600081525090565b6000813590506108aa81610f8e565b92915050565b6000813590506108bf81610fa5565b92915050565b6000813590506108d481610fbc565b92915050565b6000602082840312156108ec57600080fd5b60006108fa8482850161089b565b91505092915050565b60006020828403121561091557600080fd5b6000610923848285016108c5565b91505092915050565b6000806040838503121561093f57600080fd5b600061094d858286016108c5565b925050602061095e858286016108b0565b9150509250929050565b60008060006060848603121561097d57600080fd5b600061098b868287016108c5565b935050602061099c868287016108b0565b92505060406109ad868287016108b0565b9150509250925092565b600080604083850312156109ca57600080fd5b60006109d8858286016108c5565b92505060206109e9858286016108c5565b9150509250929050565b6109fc81610ec9565b82525050565b610a0b81610edb565b82525050565b610a1a81610ee7565b82525050565b610a2981610ee7565b82525050565b6000610a3a82610e79565b610a448185610e84565b9350610a54818560208601610f1b565b610a5d81610f7d565b840191505092915050565b6000610a75600f83610e84565b91507f496e76616c6964206164647265737300000000000000000000000000000000006000830152602082019050919050565b6000610ab5601583610e84565b91507f4e6f2072656164696e677320617661696c61626c6500000000000000000000006000830152602082019050919050565b6000610af5601783610e84565b91507f536869706d656e7420616c7265616479206578697374730000000000000000006000830152602082019050919050565b6000610b35601283610e84565b91507f496e76616c6964207468726573686f6c647300000000000000000000000000006000830152602082019050919050565b6000610b75601783610e84565b91507f536869706d656e7420646f6573206e6f742065786973740000000000000000006000830152602082019050919050565b6000610bb5602183610e84565b91507f4f6e6c792061646d696e2063616e2063616c6c20746869732066756e6374696f60008301527f6e000000000000000000000000000000000000000000000000000000000000006020830152604082019050919050565b604082016000820151610c246000850182610c3d565b506020820151610c376020850182610a11565b50505050565b610c4681610f11565b82525050565b610c5581610f11565b82525050565b6000602082019050610c7060008301846109f3565b92915050565b6000606082019050610c8b6000830186610a20565b610c986020830185610a20565b610ca56040830184610a02565b949350505050565b60006020820190508181036000830152610cc681610a68565b9050919050565b60006020820190508181036000830152610ce681610aa8565b9050919050565b60006020820190508181036000830152610d0681610ae8565b9050919050565b60006020820190508181036000830152610d2681610b28565b9050919050565b60006020820190508181036000830152610d4681610b68565b9050919050565b60006020820190508181036000830152610d6681610ba8565b9050919050565b6000604082019050610d826000830184610c0e565b92915050565b6000604082019050610d9d6000830185610c4c565b610daa6020830184610a20565b9392505050565b6000606082019050610dc66000830186610c4c565b610dd36020830185610a20565b610de06040830184610a20565b949350505050565b6000608082019050610dfd6000830187610c4c565b610e0a6020830186610c4c565b610e176040830185610a20565b610e246060830184610a02565b95945050505050565b6000608082019050610e426000830187610c4c565b610e4f6020830186610c4c565b610e5c6040830185610a20565b8181036060830152610e6e8184610a2f565b905095945050505050565b600081519050919050565b600082825260208201905092915050565b6000610ea082610f11565b9150610eab83610f11565b925082821015610ebe57610ebd610f4e565b5b828203905092915050565b6000610ed482610ef1565b9050919050565b60008115159050919050565b6000819050919050565b600073ffffffffffffffffffffffffffffffffffffffff82169050919050565b6000819050919050565b60005b83811015610f39578082015181840152602081019050610f1e565b83811115610f48576000848401525b50505050565b7f4e487b7100000000000000000000000000000000000000000000000000000000600052601160045260246000fd5b6000601f19601f8301169050919050565b610f9781610ec9565b8114610fa257600080fd5b50565b610fae81610ee7565b8114610fb957600080fd5b50565b610fc581610f11565b8114610fd057600080fd5b5056fea26469706673582212208ffa929ab0bf03e5fca1f370ce4febfa47cea7ede1a6befcb662262cfc5b517364736f6c63430008000033",
  "immutableReferences": {},
  "source": "// SPDX-License-Identifier: MIT\npragma solidity ^0.8.0;\n\ncontract ColdChainTracker {\n    address public admin;\n\n    struct Shipment {\n        int256 minThreshold;\n        int256 maxThreshold;\n        bool exists;\n    }\n\n    struct Reading {\n        uint256 timestamp;\n        int256 temperature;\n    }\n\n    mapping(uint256 => Shipment) public shipments;\n    mapping(uint256 => Reading[]) public shipmentReadings;\n\n    event ShipmentCreated(\n        uint256 shipmentId,\n        int256 minThreshold,\n        int256 maxThreshold\n    );\n    event NewReading(\n        uint256 shipmentId,\n        uint256 timestamp,\n        int256 temperature,\n        bool compliant\n    );\n    event Alert(\n        uint256 shipmentId,\n        uint256 timestamp,\n        int256 temperature,\n        string message\n    );\n\n    // Modifier to restrict access to the admin\n    modifier onlyAdmin() {\n        require(msg.sender == admin, \"Only admin can call this function\");\n        _;\n    }\n\n    constructor() {\n        admin = msg.sender; // Set the deployer as the admin\n    }\n\n    /**\n     * @notice Create a new shipment with defined temperature thresholds.\n     * @param shipmentId The unique identifier for the shipment.\n     * @param minThreshold The minimum acceptable temperature.\n     * @param maxThreshold The maximum acceptable temperature.\n     */\n    function createShipment(\n        uint256 shipmentId,\n        int256 minThreshold,\n        int256 maxThreshold\n    ) public onlyAdmin {\n        require(!shipments[shipmentId].exists, \"Shipment already exists\");\n        require(minThreshold < maxThreshold, \"Invalid thresholds\");\n\n        shipments[shipmentId] = Shipment(minThreshold, maxThreshold, true);\n        emit ShipmentCreated(shipmentId, minThreshold, maxThreshold);\n    }\n\n    /**\n     * @notice Record a new temperature reading for a given shipment.\n     * @param shipmentId The shipment to which this reading belongs.\n     * @param temperature The temperature reading.\n     */\n    function recordReading(uint256 shipmentId, int256 temperature) public {\n        require(shipments[shipmentId].exists, \"Shipment does not exist\");\n\n        Shipment memory shipment = shipments[shipmentId];\n        bool compliant = (temperature >= shipment.minThreshold &&\n            temperature <= shipment.maxThreshold);\n        shipmentReadings[shipmentId].push(\n            Reading(block.timestamp, temperature)\n        );\n\n        emit NewReading(shipmentId, block.timestamp, temperature, compliant);\n\n        // Emit an Alert event if the temperature is out-of-bound.\n        if (!compliant) {\n            string memory message = temperature < shipment.minThreshold\n                ? \"Temperature below minimum\"\n                : \"Temperature above maximum\";\n            emit Alert(shipmentId, block.timestamp, temperature, message);\n        }\n    }\n\n    /**\n     * @notice Fetch the latest temperature reading for a shipment.\n     * @param shipmentId The shipment to query.\n     * @return The latest Reading struct.\n     */\n    function getLatestReading(\n        uint256 shipmentId\n    ) public view returns (Reading memory) {\n        require(\n            shipmentReadings[shipmentId].length > 0,\n            \"No readings available\"\n        );\n        return\n            shipmentReadings[shipmentId][\n                shipmentReadings[shipmentId].length - 1\n            ];\n    }\n\n    /**\n     * @notice Transfer admin rights to a new address.\n     * @param newAdmin The address of the new admin.\n     */\n    function transferAdmin(address newAdmin) public onlyAdmin {\n        require(newAdmin != address(0), \"Invalid address\");\n        admin = newAdmin;\n    }\n}\n",
  "sourcePath": "/home/kyouma/project_lab/ColdChainPoC/contracts/ColdChainTracker.sol",
  "compiler": {
    "name": "solc",
    "version": "0.8.0+commit.c7dfd78e.Emscripten.clang"
  },
  "schemaVersion": "3.4.16",
  "updatedAt": "2025-02-08T17:28:21.503Z",
  "networkType": "ethereum",
  "devdoc": {
    "kind": "dev",
    "methods": {
      "createShipment(uint256,int256,int256)": {
        "params": {
          "maxThreshold": "The maximum acceptable temperature.",
          "minThreshold": "The minimum acceptable temperature.",
          "shipmentId": "The unique identifier for the shipment."
        }
      },
      "getLatestReading(uint256)": {
        "params": {
          "shipmentId": "The shipment to query."
        },
        "returns": {
          "_0": "The latest Reading struct."
        }
      },
      "recordReading(uint256,int256)": {
        "params": {
          "shipmentId": "The shipment to which this reading belongs.",
          "temperature": "The temperature reading."
        }
      },
      "transferAdmin(address)": {
        "params": {
          "newAdmin": "The address of the new admin."
        }
      }
    },
    "version": 1
  },
  "userdoc": {
    "kind": "user",
    "methods": {
      "createShipment(uint256,int256,int256)": {
        "notice": "Create a new shipment with defined temperature thresholds."
      },
      "getLatestReading(uint256)": {
        "notice": "Fetch the latest temperature reading for a shipment."
      },
      "recordReading(uint256,int256)": {
        "notice": "Record a new temperature reading for a given shipment."
      },
      "transferAdmin(address)": {
        "notice": "Transfer admin rights to a new address."
      }
    },
    "version": 1
  }
}